:020000040800F2
:1000000020E9002069020008A931000855260008EF
:10001000452F0008E309000815B60008000000009D
:10002000000000000000000000000000CD84000877
:10003000E11F0008000000005F050008CD9B0008DC
:10004000830200088302000883020008830200087C
:10005000830200088302000883020008830200086C
:10006000830200088302000883020008830200085C
:10007000830200088302000859170008811700084E
:1000800083020008B91700088302000883020008F1
:10009000E90A0008830200088302000883020008BE
:1000A000759D00088302000883020008830200088F
:1000B000BD9D0008759F00088302000883020008A8
:1000C00083020008830200088302000883020008FC
:1000D000830200088302000831AD0008F1AE000879
:1000E00083020008830200088302000883020008DC
:1000F00083020008830200088302000883020008CC
:1001000083020008830200088302000883020008BB
:100110001DAB000883020008830200088302000868
:10012000E117000883020008830200088302000828
:10013000830200088302000883020008830200088B
:100140002D0D0008830200088302000883020008C6
:1001500083020008830200084D180008E5B100087A
:10016000830200088302000883020008830200085B
:10017000830200088302000883020008830200084B
:10018000830200088302000800F002F800F05CF827
:100190000AA090E8000C82448344AAF10107DA45E2
:1001A00001D100F051F8AFF2090EBAE80F0013F0D8
:1001B000010F18BFFB1A43F00103184750E4000079
:1001C00070E400000A444FF0000C10F8013B13F0FB
:1001D000070408BF10F8014B1D1108BF10F8015BA0
:1001E000641E05D010F8016B641E01F8016BF9D193
:1001F00013F0080F1EBF10F8014BAD1C0C1B09D1EA
:100200006D1E58BF01F801CBFAD505E014F8016B5B
:1002100001F8016B6D1EF9D59142D6D370470000ED
:100220000023002400250026103A28BF78C1FBD8FF
:10023000520728BF30C148BF0B6070471FB50EF092
:10024000D3F81FBD10B510BD00F03EF91146FFF701
:10025000F5FF0DF019FA00F05CF903B4FFF7F2FFB7
:1002600003BC0BF093FF0000094880470948004792
:10027000FEE7FEE7FEE7FEE7FEE7FEE7FEE7FEE756
:10028000FEE7FEE704480549054A064B70470000B3
:10029000E99B00088901000820DB002020E90020FC
:1002A00020DD002020DD002072B6704762B6704766
:1002B000EFF3108072B6704780F31088704730BF3C
:1002C000704720BF7047B0FA80F0704790FAA0F0F6
:1002D000B0FA80F0704790FAA0F07047704730B5E0
:1002E00005460B462A4613F8014B12F8010B08B1DC
:1002F000A042F8D01CB1002802D06D1CF1E72846BE
:1003000030BD10B5431C02E010F8011B71B181072C
:10031000FAD14FF0013202C88C1A8C4314EAC21190
:10032000F9D0C01A0A0603D0C01E10BDC01A10BDF5
:100330000A0401D0801E10BD0902FCD0401E10BD71
:10034000032A40F2308010F0030C00F0158011F801
:10035000013BBCF1020F624498BF11F801CB00F8D9
:10036000013B38BF11F8013BA2F1040298BF00F82D
:1003700001CB38BF00F8013B11F0030300F02580EA
:10038000083AC0F0088051F8043B083A51F804CB11
:10039000A0E80810F5E7121D5CBF51F8043B40F8D7
:1003A000043BAFF30080D20724BF11F8013B11F8E2
:1003B00001CB48BF11F8012B24BF00F8013B00F826
:1003C00001CB48BF00F8012B704710B5203AC0F0B0
:1003D0000B80B1E81850203AA0E81850B1E8185046
:1003E000A0E81850BFF4F5AF5FEA027C24BFB1E883
:1003F0001850A0E8185044BF18C918C0BDE81040F4
:100400005FEA827C24BF51F8043B40F8043B08BFFC
:100410007047D20728BF31F8023B48BF11F8012BC3
:1004200028BF20F8023B48BF00F8012B70474FF06F
:1004300000020429C0F0128010F0030C00F01B80B1
:10044000CCF1040CBCF1020F18BF00F8012BA8BFBF
:1004500020F8022BA1EB0C0100F00DB85FEAC17C83
:1004600024BF00F8012B00F8012B48BF00F8012B36
:1004700070474FF0000200B5134694469646203967
:1004800022BFA0E80C50A0E80C50B1F12001BFF44D
:10049000F7AF090728BFA0E80C5048BF0CC05DF8B3
:1004A00004EB890028BF40F8042B08BF704748BF01
:1004B00020F8022B11F0804F18BF00F8012B704775
:1004C0007047704770477047754600F029F8AE4690
:1004D00005006946534620F00700854618B020B550
:1004E000FFF7D0FEBDE820404FF000064FF00007B8
:1004F0004FF000084FF0000B21F00701AC46ACE8CC
:10050000C009ACE8C009ACE8C009ACE8C0098D4638
:1005100070470446AFF300802046FFF79EFE0000C0
:1005200000487047C0DA002022484FF6FF71017082
:10053000002080F309882048016881F308881F485B
:100540004FF08051016062B6FEE71C484FF08051C9
:100550000160704719484FF080510160704772B6D2
:10056000EFF3098050B11EF0100F08BF20ED108A84
:10057000203880E8F00F12490968086000B511487A
:1005800080475DF804EB104810490A7802700C4867
:100590000F490A680260106890E8F00F20301EF0E2
:1005A000100F08BFB0EC108A80F309884EF0040EDB
:1005B00062B6704722ED00E04003002004ED00E049
:1005C000380300203D450008C6020020C702002075
:1005D0003C03002000B58DB00121042007F008FB8A
:1005E0000121080207F034FB0E200B9003208DF848
:1005F000300000208DF833000BA9204801F060FE88
:10060000002007900A9009904FF48030089007A8C6
:1006100000F044F80020019001208DF808008DF8CA
:10062000090000200390059003208DF8180001A90F
:10063000134800F061F8072301220B21104800F055
:1006400085F8072302220C210D4800F07FF80723CC
:1006500003220D210A4800F079F80121084800F032
:1006600040F80121064800F031F80121044800F06B
:1006700009F8034800F0C6F80DB000BD00080240BC
:100680000020014021B1826842F00102826003E053
:10069000826822F001028260704700000021084A4F
:1006A0001168084A1140D0E900231A4383681A43AD
:1006B000C3681A431143044AC2F804137047000088
:1006C00004230140E030FCFF0020014021B182689A
:1006D00042F48072826003E0826822F48072826059
:1006E000704721B1826842F40072826003E0826840
:1006F00022F400728260704730B502460020002369
:100700005068104C20400D790C6844EA05242043C1
:10071000506090680C4C2040D1E903542C438D6804
:100720002C434D7944EA450420439060D06A20F47C
:1007300070000C7D641EE4B2234340EA0350D06293
:1007400030BD0000FFFEFFFCFDF7FFC0F0B5044622
:100750000D4600200021092D11DDE068A5F10A06F3
:1007600006EB4607072606FA07F18843A5F10A06B5
:1007700006EB460603FA06F10843E0600CE0206948
:1007800005EB4507072606FA07F1884305EB450602
:1007900003FA06F108432061072A0FDA606B561E40
:1007A00006EB86071F2606FA07F18843561E06EB5E
:1007B000860605FA06F10843606322E00D2A0FDA87
:1007C000206BD61F06EB86071F2606FA07F1884323
:1007D000D61F06EB860605FA06F10843206310E0F3
:1007E000E06AA2F10D0606EB86071F2606FA07F15E
:1007F0008843A2F10D0606EB860605FA06F10843CA
:10080000E062F0BD816841F0804181607047000086
:1008100070B53F480078801E81B23E4800F07EFDF2
:100820000446E5B2260A3A480078801E3949085C39
:10083000A84234D136480078401E085CB0422ED120
:1008400008464078042817D006DC01280BD002287F
:100850000CD003281CD10CE0052810D0062811D09C
:10086000102815D111E007F077FA17E007F0F2FA37
:1008700014E007F08DFB11E007F0E8FB0EE007F055
:1008800061FC0BE007F0A2FC08E007F0EDFC05E0DE
:100890002049487804210CF02BFD00BF36E01D48AC
:1008A000407804281DD006DC01280BD002280ED089
:1008B00003282AD110E0052818D006281BD01028BC
:1008C00023D11DE0082101200CF012FD1DE00821BC
:1008D00002200CF00DFD18E0082103200CF008FDAB
:1008E00013E0082104200CF003FD0EE00821052090
:1008F0000CF0FEFC09E0082106200CF0F9FC04E0F5
:10090000082110200CF0F4FC00BF00BF70BD0000F7
:100910001C0000202277002000BF44E0224800781D
:1009200040B92248006810B12148407D10B1012033
:10093000204908701D48001F006810B11C48807DC8
:1009400058B10020184908700A23002211461046A9
:100950000CF020FC01201849087013480078012889
:100960001BD11648007850B9104810300068A0B963
:1009700001201149087012A00CF06EFF0DE00F4825
:100980000078012809D109480C30006828B90120F5
:10099000094908700AA00CF05FFF0A2300221146E3
:1009A00010460CF0F7FBB9E7E50100201482424243
:1009B0006C9D0020E1010020E2010020E001002008
:1009C000BCB1CDA3A3ACB0B4C6F4B6AFBCFCC6F406
:1009D000B6AF00001FB5684607F04AF9019804B0A9
:1009E00010BD00BFFEE700002DE9F0418AB00446CB
:1009F0000D4616461F46DDF840800121084607F0E7
:100A0000F7F80121480607F003F94FF4C0500890A9
:100A100002208DF8240000208DF8260003208DF898
:100A2000250001208DF8270008A92D4801F048FC79
:100A300009220B212A4801F08BFC09220C212848AD
:100A400001F086FC00208DF81A008DF81B008DF84F
:100A50001C0001208DF81D0000208DF81E008DF86F
:100A60001F008DF816808DF817408DF818608DF8EE
:100A70001950ADF8147005A91A4800F018FA0020B2
:100A80008DF80E008DF80F0001208DF81000002069
:100A9000ADF80400ADF80600ADF80800ADF80A00A6
:100AA000ADF80C0001208DF8110001A800F072F9DA
:100AB000012202210B4800F0F1F914208DF800000A
:100AC00001208DF8010000208DF8020001208DF832
:100AD0000300684602F06AFB00200AB0BDE8F0811E
:100AE000000002400064004010B500242E4A00219E
:100AF0002E4800F066FA2C480068122829D100BF61
:100B00000BE02948C07A80F0FF00204100F001008E
:100B100080F0010026490855641C082CF1DB0024F4
:100B20000DE02148007B80F0FF00204100F0010033
:100B300080F001011E4A04F108001154641C032CCA
:100B4000EFDB1948407B552803D10421194800F0F8
:100B500035F815480068132810D11348C07A164993
:100B6000A1F84E001048007BA1F850000E48407BD1
:100B7000A1F852000C48807BA1F854000A48006894
:100B8000142810D10848C07A0B49A1F8560006482D
:100B9000007BA1F858000448407BA1F85A000248A5
:100BA000807BA1F85C0010BDA89C00200064004080
:100BB00044000020EA010020EC9D0020F0B585B043
:100BC00007460D46002410200090019000208DF86B
:100BD00008008DF809008DF80A5000BF05E0395D66
:100BE0000DF10B000155601C84B2AC42F7DB694685
:100BF0000C4800F05EFA0646002401E0601C84B256
:100C00003146084800F0E8FA18B940F6FF7084420F
:100C1000F4DB40F6FF70844202DB012005B0F0BD3A
:100C20000020FBE7006400402DE9F0418AB0044653
:100C30000D4616461F46DDF840800121022006F0D1
:100C4000D7FF01214FF0C06006F0E2FF602008905E
:100C500002208DF8240000208DF8260003208DF856
:100C6000250001208DF8270008A92E4801F028FB57
:100C7000092205212B4801F06BFB09220621294896
:100C800001F066FB00208DF81A008DF81B008DF82E
:100C90001C0001208DF81D0000208DF81E008DF82D
:100CA0001F008DF816808DF817408DF818608DF8AC
:100CB0001950ADF8147005A91B4800F0F8F80E2083
:100CC0008DF80E0000208DF80F0001208DF8100027
:100CD0000020ADF80400ADF80600ADF80800ADF84E
:100CE0000A00ADF80C0001208DF8110001A800F0F9
:100CF00051F8012202210C4800F0D0F840208DF874
:100D0000000001208DF8010002208DF80200012072
:100D10008DF80300684602F049FA00200AB0BDE8E9
:100D2000F0810000000402400068004000B587B078
:100D3000124A0021124800F044F91048007B0F4984
:100D4000C97A40EA01200F490880084600880E4908
:100D5000A1F848000D48037808220A48018868462F
:100D600001F0D6F91C2269460948FFF72EFB084816
:100D7000808A0549A1F84A0007B000BDA89C002060
:100D80000068004050000020EC9D00202C02002054
:100D9000BC9C002010B50021837A012202FA03F1E5
:100DA0003D4A126842F001023B4B1A603A4A1C323B
:100DB00012688A43384B1C331A60027BCAB9364A20
:100DC0000C3212688A43344B0C331A604288C38851
:100DD00042EA0343304A4032847A42F8343002888F
:100DE000838842EA03432C4A4032847A02EBC402ED
:100DF0005360027B012A19D1274A0C3212680A4338
:100E0000254B0C331A604288038842EA0343224A86
:100E10004032847A42F83430C288838842EA0343FD
:100E20001D4A4032847A02EBC4025360C27A3AB956
:100E3000194A121D12688A43174B1B1D1A6006E0DF
:100E4000154A121D12680A43134B1B1D1A600289B2
:100E500032B9114A143212688A430F4B14331A60A4
:100E60000289012A06D10C4A143212680A430A4B3D
:100E700014331A60427B012A06D1074A1C321268D9
:100E80000A43054B1C331A60034A126822F0010220
:100E9000014B1A6010BD0000006600401AB14369A2
:100EA0000B43436102E043698B434361704730B5B4
:100EB000024600200023146824F002041460146821
:100EC00044F00104146000E05B1C546804F0010469
:100ED0001CB94FF6FF74A342F6D1546804F0010424
:100EE0000CB900206CE08C79012C04D1146844F01A
:100EF0008004146003E0146824F080041460CC794A
:100F0000012C04D1146844F04004146003E0146818
:100F100024F0400414600C7A012C04D1146844F0CD
:100F20002004146003E0146824F0200414604C7A58
:100F3000012C04D1146844F01004146003E0146818
:100F400024F0100414608C7A012C04D1146844F04D
:100F50000804146003E0146824F008041460CC7AD8
:100F6000012C04D1146844F00404146003E01468F4
:100F700024F0040414608C78A407CD7844EA056456
:100F80000D7944EA05444D7944EA05540D886D1EF7
:100F90002C43D461146824F001041460002300E0A1
:100FA0005B1C546804F001041CB14FF6FF74A342AB
:100FB000F6D1546804F001040CB1002000E00120D7
:100FC00030BD10B500F5D87303EB01131B6803F0B7
:100FD00004031372137A53B900F5D87303EB0113AA
:100FE0001B6840F2FF7404EA5353136009E000F5F4
:100FF000D87303EB01131B686FF0604404EAD3035A
:10100000536000F5D87303EB01131B6803F0020370
:10101000537200F5D87303EB01135B6803F00F0301
:10102000937200F5D87303EB01135B681B0AD3744A
:1010300000F5D87303EB01139B68D37200F5D873E6
:1010400003EB01139B681C0A147300F5D87303EBC0
:1010500001139B681C0C547300F5D87303EB011348
:101060009B681B0E937300F5D87303EB0113DB68C9
:10107000D37300F5D87303EB0113DB681C0A1474F7
:1010800000F5D87303EB0113DB681C0C547400F5F6
:10109000D87303EB0113DB681B0E937421B9C3688B
:1010A00043F02003C36003E0036943F020030361BE
:1010B00010BD10B502460020936803F08063B3F1C1
:1010C000806F00D110E0936803F00063B3F1006F0C
:1010D00001D1012008E0936803F08053B3F1805FF1
:1010E00001D1022000E00420042874D002F5C0736E
:1010F00003EB00131B6803F0010402F5C07303EB5C
:1011000000131C600B7A7BB94B7A0C8843EA44537A
:1011100002F5C07404EB00142468234302F5C07484
:1011200004EB0014236010E00B7A4C6843EAC4031C
:101130004C7A234302F5C07404EB00142468234363
:1011400002F5C07404EB001423608B7A03F00F03E4
:101150008B7202F5C07303EB00135B6823F00F047E
:1011600002F5C07303EB00135C6002F5C07303EB80
:1011700000135B688C7A234302F5C07404EB0014FF
:1011800063608B7B1C064B7B44EA03440B7B44EA85
:101190000323CC7A234302F5C07404EB0014A3604C
:1011A0008B7C1C064B7C44EA03440B7C44EA0323FF
:1011B000CC7B234302F5C07404EB0014E36002F51A
:1011C000C07303EB00131B6843F0010402F5C07306
:1011D00003EB00131C6010BD10B50246002321B1C3
:1011E000012907D002290FD109E090681D4C00EABF
:1011F00004030BE090681C4C00EA040306E09068CE
:101200001A4C00EA040301E0002300BF00BF184CA1
:10121000181BA34216D007DC83B16FF0806018441E
:1012200070B1022818D111E0B0F5007F10D0114C38
:10123000204448B1B0F5003F0ED10BE002230DE091
:1012400000230BE0002309E0002307E0012305E071
:10125000012303E0012301E0002300BF00BFD8B257
:1012600010BD00000300000400030008000003108C
:10127000000100080001FFF710B500F01FF800F0B2
:1012800019F810BD10B5002400BF00BFFFF710F81B
:10129000044600BF00BF1021054801F055FE00BF05
:1012A00000BF2046FFF708F800BF00BF10BD0000D8
:1012B0003EBF002010B5FFF7E5FF10BD10B50020C0
:1012C0000249086000F00AF810BD00006C0200201E
:1012D00001490860704700006C02002010B5FFF75C
:1012E00079FB04460848006840F0807006490860B1
:1012F0000020064948600846006840F00100086088
:101300002046FFF7E5FF10BDFCED00E0001000E017
:101310000149486870470000001000E030B50246FF
:101320000B464FF6FF70002112E0555C6840002428
:101330000AE000F0010525B140104AF201056840BD
:1013400000E04010651CACB2082CF2DB4D1CA9B2C9
:101350009942EADB30BD7047002004494883888207
:10136000488548800881488188817047EC9D00202D
:1013700001200449A1F872000020A1F87400A1F82E
:1013800076007047EC9D002010B50446022C05D174
:10139000064801780648FFF74AF806E0062C04D113
:1013A000044801780448FFF742F810BD1D000020F2
:1013B0001C7800201E000020107A00200EB50024AA
:1013C0003FE1601CC4B2642C06D19E480068C04353
:1013D0009D49C1F8800200249C4890F85E009C4919
:1013E00008709C48007800284DD19B480078002860
:1013F00049D09A4800780128F6D199480078002809
:1014000042D19248B0F84E000978884206DD8F48F4
:10141000B0F850008E49097888420FDC9148007876
:1014200060B902208949A1F88C0001208D4908701B
:10143000052001F0BDFD8CA00CF00EFA8348B0F839
:101440004E008349097888421DDD8048B0F850007D
:101450007F4909788842F7DD824800780128C3D1A6
:1014600002A800210B460122CDE90010084603F036
:1014700035F905207549A1F88C00002079490870DC
:1014800001207C490870D6E075480078012843D1D6
:101490006E48B0F852006E490978884206DD6B4804
:1014A000B0F854006A49097888420FDC6D4800782A
:1014B00060B902206549A1F88C00012069490870D3
:1014C000052001F075FD68A00CF0C6F95F48B0F882
:1014D00052005F4909788842D5DD5C48B0F8540075
:1014E0005B4909788842CEDD5E4800780128CAD180
:1014F00002A800210B460122CDE90010084603F0A6
:10150000EDF805205149A1F88C00002055490870DC
:101510000120584908708EE051480078022843D1D4
:101520004A48B0F856004A490978884206DD4748DB
:10153000B0F858004649097888420FDC49480078DD
:1015400060B902204149A1F88C000120454908708A
:10155000052001F02DFD44A00CF07EF93B48B0F8C9
:1015600056003B490978884265DD3848B0F8580094
:101570003749097888425EDD3A48007801285AD117
:1015800002A800210B460122CDE90010084603F015
:10159000A5F805202D49A1F88C00002031490870DC
:1015A00001203449087046E02D480078032842D1D4
:1015B0002648B0F85A0026490978884206DD2348B3
:1015C000B0F85C002249097888420FDC2548007891
:1015D00060B902201D49A1F88C0001202149087042
:1015E000052001F0E5FC20A00CF036F91748B0F812
:1015F0005A001749097888421DDD1448B0F85C008C
:1016000013490978884216DD16480078012812D15E
:1016100002A800210B460122CDE90010084603F084
:101620005DF805200949A1F88C0000200D490870DB
:101630000120104908700A230022114610460BF0C1
:10164000A9FDBEE68002424200004242EC9D00201D
:10165000120200200600002015020020E5010020F3
:10166000E001002013020020C7B0B7BDD3D0D5CF12
:10167000B0AD0000E101002021E011480078C0B1C8
:101680001048B0F8840048B915200E49C8830EA050
:101690000CF0E2F800200A4908700AE00CF000F9AA
:1016A00005200849A1F88C0000200D49087504495F
:1016B00008700A230022114610460BF06BFDDCE790
:1016C000E1010020EC9D0020C7EBD1A1D4F1D0E8CE
:1016D000D2AAD6B4D0D0B5C4C8CECEF1A3A1000052
:1016E0006C9D00201EE010480078012805D10AF00A
:1016F00051FD01210D4800F0DBF80D48007858B18C
:101700000CF09CFA03200B49A1F88C0001200A4937
:10171000087500200649087005230022114610466E
:101720000BF038FDDFE700003D0200202864024096
:10173000E2010020EC9D00206C9D0020002409E0C7
:10174000601C84B2142C02D1002400F0C9FF0A20CE
:101750000CF06EF8F4E7000010B50749074800F0F8
:1017600063F938B10449054800F088F800210348BE
:1017700000F09EF810BD0000008000185860024084
:1017800010B50A490A4800F04FF968B1012240F249
:101790002661084809F0B8FD0449054800F06EF8D4
:1017A0000021034800F084F810BD000020800020D4
:1017B00070600240004C004010B50749074800F037
:1017C00033F938B10449054800F058F800210348BE
:1017D00000F06EF810BD000000802020A0600240E4
:1017E0002DE9F04100261549154800F01DF910B308
:1017F00000241AE0002509E005EB4500114901EB42
:10180000400030F814000644681CC5B21E2DF3DBFE
:101810001E2096FBF0F738460CF0BDFC0A4A02EB9E
:10182000C40203C20026601CC4B2032CE2DB0349DD
:10183000034800F023F8BDE8F0810000208000108C
:1018400010640240587500201076002010B5084939
:10185000084800F0E9F850B10549064800F00EF8D4
:101860000021044800F024F801200349087010BD4D
:1018700000800028B86402403C0200200246094B68
:101880009A4201D2084801E00648103801F000539E
:101890001BB1064B0B40C36002E0044B0B4083605E
:1018A0007047000010640240006002407D0F7D0F11
:1018B00021B1026842F00102026003E0026822F0F6
:1018C0000102026070470000016821F0010101601F
:1018D0000021016041608160C1600161212141619D
:1018E0004A49884204D13D21484A103A91608CE02F
:1018F00046491831884205D14FF47461434A103A81
:10190000916082E041493031884205D14FF4741131
:101910003E4A103A916078E03C494831884205D10E
:101920004FF07461394A103A91606EE03749603186
:10193000884204D13649354A103AD16065E03349CE
:101940007831884204D13349304A103AD1605CE0A2
:101950002E499031884204D12F492C4A103AD16047
:1019600053E02A49A831884205D14FF03D51274A1A
:10197000103AD16049E02949884204D13D21274AE3
:10198000083A116041E025491831884205D14FF4E9
:101990007461224A083A116037E0204930318842A8
:1019A00005D14FF474111D4A083A11602DE01B490E
:1019B0004831884205D14FF07461184A083A1160E5
:1019C00023E016496031884204D11149134A121F9D
:1019D00011601AE011497831884204D10D490F4A4B
:1019E000121F116011E00D499031884204D10A495B
:1019F0000A4A121F116008E00849A831884204D140
:101A00004FF03D51054A121F1160704710600240AF
:101A10003D000020400F002000003D2010640240E7
:101A20000146486880B2704770B502460020002425
:101A30000025124EB24201D2114B01E00F4B103B78
:101A4000104E0E4036B11E2606EAD124166806EA6C
:101A5000040502E0566906F0800501F000560EB15B
:101A60005C6800E01C68084E344004EA010616B1C8
:101A70000DB1012000E0002070BD000010640240A4
:101A8000006002403C0F3C0F7D0F7D0F10B501F050
:101A900080034BB122B1436943F08003436103E00B
:101AA000436923F08003436180290BD02AB1036886
:101AB00001F01E042343036004E0036801F01E04E8
:101AC000A343036010BD000010B500220268134B51
:101AD0001A40CC680B6823434C6923438C69234329
:101AE000CC6923430C6A23434C6A23438C6A234307
:101AF0004C6B23438C6B23431A430260426922F0F0
:101B00000702D1E90B3423431A4342610B69436056
:101B10004B6883608B68C36010BD00003F801CF081
:101B20004160704700B591B00121480506F060F8AA
:101B300000213A48FFF7BCFE3848FFF7C5FE4FF0DA
:101B4000006001903648029036480390402004908F
:101B5000FA200590002006904FF480600790002046
:101B6000089009904FF480700A9000200C90032098
:101B70000D9000040B9000200E900F9001A92748B3
:101B8000FFF7A2FF00212548FFF792FE0122102156
:101B90002248FFF77BFF002120481838FFF788FE16
:101BA0001E481838FFF790FE4FF0006001901C4867
:101BB00002901D48039000200490FA200590002018
:101BC00006904FF4806007900020089009904FF431
:101BD00080700A9000200C9003200D9000040B9060
:101BE00000200E900F9001A90C481838FFF76CFFE9
:101BF00001210A481838FFF75BFE11208DF84000DC
:101C000002208DF8410005208DF8420001208DF85A
:101C1000430010A801F0CAFA11B000BDA060024054
:101C200004440040167900201C78002000B591B0D3
:101C30000121480505F0DCFF00213A48FFF738FE96
:101C40003848FFF741FE4FF000600190364802909F
:101C50003648039040200490822005900020069092
:101C60004FF4806007900020089009904FF4807036
:101C70000A9000200C9003200D9000040B9000208F
:101C80000E900F9001A92748FFF71EFF002125485D
:101C9000FFF70EFE012210212248FFF7F7FE002178
:101CA00020483038FFF704FE1E483038FFF70CFE9E
:101CB0004FF0006001901C4802901D4803900020E6
:101CC000049082200590002006904FF480600790D9
:101CD0000020089009904FF480700A9000200C902A
:101CE00003200D9000040B9000200E900F9001A98E
:101CF0000C483038FFF7E8FE01210A483038FFF77A
:101D0000D7FD0E208DF8400002208DF841000520FF
:101D10008DF8420001208DF8430010A801F046FA2A
:101D200011B000BD5860024004480040867C00208D
:101D3000047C002000B591B00121480505F058FF52
:101D400000213A48FFF7B4FD3848FFF7BDFD4FF0DA
:101D5000006001903648029036480390402004907D
:101D6000FA200590002006904FF480600790002034
:101D7000089009904FF480700A9000200C90032086
:101D80000D9000040B9000200E900F9001A92748A1
:101D9000FFF79AFE00212548FFF78AFD0122102156
:101DA0002248FFF773FE002120483038FFF780FDFE
:101DB0001E483038FFF788FD4FF0006001901C4846
:101DC00002901D48039000200490FA200590002006
:101DD00006904FF4806007900020089009904FF41F
:101DE00080700A9000200C9003200D9000040B904E
:101DF00000200E900F9001A90C483038FFF764FEC8
:101E000001210A483038FFF753FD0F208DF84000BC
:101E100002208DF8410004208DF8420001208DF849
:101E2000430010A801F0C2F911B000BD706002407B
:101E3000044C0040287600202277002000B591B0A5
:101E40000121880505F0D4FE00213A48FFF730FD56
:101E50003848FFF739FD4FF0206001903648029076
:101E60003648039040200490FA2005900020069008
:101E70004FF4806007900020089009904FF4807024
:101E80000A9000200C9003200D9000040B9000207D
:101E90000E900F9001A92748FFF716FE0021254854
:101EA000FFF706FD012210212248FFF7EFFD002178
:101EB00020489038FFF7FCFC1E489038FFF704FDDF
:101EC0004FF0206001901C4802901D4803900020B4
:101ED0000490FA200590002006904FF4806007904F
:101EE0000020089009904FF480700A9000200C9018
:101EF00003200D9000040B9000200E900F9001A97C
:101F00000C489038FFF7E0FD01210A489038FFF7B0
:101F1000CFFC46208DF8400002208DF841000420BF
:101F20008DF8420001208DF8430010A801F03EF921
:101F300011B000BDB8640240041401400A7B0020C7
:101F4000107A002000B591B00121880505F050FEFF
:101F500000212048FFF7ACFC1E48FFF7B5FC00202D
:101F600001901D4802901D480390002004905A20C3
:101F70000590002006904FF4806007904000089084
:101F80000990C0100A9000200C9003200D900004CE
:101F90000B9000200E900F9001A90E48FFF794FDC2
:101FA000012210210B48FFF771FD01210948FFF7BD
:101FB0007FFC38208DF8400002208DF8410003207E
:101FC0008DF8420001208DF8430010A801F0EEF8D2
:101FD00011B000BD106402404C2001405875002033
:101FE0007047000070B54548B0F86E0000287CDDF1
:101FF0004248B0F86E00002827DD4048B0F86E0077
:102000003E49B1F8701088421FD03C48B0F870408B
:1020100016E0002510E004EB8400394901EB400094
:1020200030F81510601E00EB8000354A02EB4000CE
:1020300020F81510681C85B2052DECDB601C84B2FD
:102040002E48B0F86E00A042E3DC2C48B0F86E00D9
:10205000401E2A49A1F86E000846B0F86E0018B973
:102060000020A1F870000FE02448B0F86E00401C7A
:102070002249B1F87010884206D12048B0F87000AB
:10208000401E1E49A1F87000002415E01B4AB2F85A
:102090006C20521E1B4B4FF4FA7606FB02320523CE
:1020A00003FB042104EB8402154B03EB42000522E1
:1020B00009F05AFD601C84B21048B0F86E00A042CE
:1020C000E4DC0E48B0F86E10B0F86C00401E0E4A0A
:1020D00022F81010094AB2F86C200C4BD118074AAC
:1020E000B2F86C20521E084B00E006E003EB420001
:1020F000012209F039FD09F0CBF970BDEC9D0020FB
:102100006EB700208E460F0086B3002099440F0062
:102110002DE9FF4F87B0884691469A460024D34662
:102120006FEA080085B20026002700BF00208DF866
:1021300000008DF811008DF8120005908DF8180040
:1021400000240CE045FA04F000F0010028B19DF8ED
:102150001200401CC0B28DF81200601C84B2102C1A
:10216000F0DB00240AE045FA04F000F0010010B9A9
:10217000701C86B200E01024601C84B2102CF2DBCC
:1021800000240AE005FA04F000F4004010B9781CBD
:1021900087B200E01024601C84B2102CF2DB3446BD
:1021A00011E045FA04F000F0010050B99DF800205C
:1021B0000DF1010084549DF80000401CC0B28DF860
:1021C0000000601C84B2C7F11000A042E9DC9DF859
:1021D000000000281FDD01208DF811009DF800008F
:1021E000012818DD002411E00DF10100611C415CA3
:1021F000005D081A012800D106E09DF81100401C7E
:10220000C0B28DF8110000BF601C84B29DF80000C0
:10221000401EA042E8DC9DF8120018B901208DF89C
:1022200018003EE09DF80000002830DD9DF8110008
:10223000012836D1BBF1020F10D134460BE045FA2C
:1022400004F000F0010018B10120A040854300E037
:102250001024601C84B2102CF1DB67E7BBF1010F86
:1022600011D13C460CE005FA04F000F4004020B126
:102270004FF400402041854300E01024601C84B2EC
:10228000102CF0DB52E701208DF8180009E09DF8D2
:102290001200484502DCB81B059002E001208DF8D1
:1022A00018001C2269460548FEF78FF81C22694673
:1022B0000798FEF78AF80BB0BDE8F08F109D00205C
:1022C000F0B50A4600210023002400BF3DE00125AF
:1022D00005FA01F3156805EA03049C4234D1056848
:1022E0004F000326BE40B543056015794E00B5404A
:1022F0000668354305601579012D02D01579022D48
:1023000016D185684F000326BE40B54385605579D8
:102310004E00B540866835438560456801268E408D
:10232000B5434560456896798E40B6B23543456001
:10233000C5684F000326BE40B543C560D5794E0041
:10234000B540C6683543C560491C1029BFD3F0BDF0
:10235000F0B5002300244D07ED0E02FA05F3CE1070
:1023600000F1200555F826504E07F70E0F26BE4007
:10237000B543CF1000F1200646F82750CE1000F1EB
:10238000200555F8265045EA0304CE1000F120053B
:1023900045F82640F0BD4183704701837047000037
:1023A00010B565220021024809F054FB10BD000061
:1023B0000C9F002070B50024344AB2F86C20344BD6
:1023C000D118324AB2F86C20521E324B03EB420055
:1023D000012209F03FFB2D48B0F86C00401E2D494A
:1023E00031F810002949A1F86E000120A1F8700011
:1023F0000846B0F86E00642804DD0020A1F86E00E5
:10240000A1F87000002415E0204AB2F86C20521E9A
:10241000214B4FF4FA7505FB0232052303FB04211F
:1024200004EB84021D4B03EB4200052209F012FB72
:10243000601C84B21548B0F86E00A042E4DC13487A
:10244000B0F87000401E00EB8000144931F8100015
:102450000E49A1F872000846B0F87000401E00EB6B
:1024600080000E4901EB400040880849A1F8740043
:102470000846B0F87000401E00EB8000074901EBF1
:10248000400080880149A1F8760070BDEC9D0020D5
:1024900099440F0086B300208E460F006EB70020CF
:1024A00070B5044600252F4AA118621E2E4B03EB7F
:1024B0004200012209F0CEFA601E2B4931F81000CB
:1024C0002A49A1F86E000120A1F870000846B0F872
:1024D0006E00642804DD0020A1F86E00A1F87000F1
:1024E000002512E0621E224B4FF4FA7606FB023200
:1024F000052303FB052105EB85021E4B03EB420080
:10250000052209F0A7FA681C85B21848B0F86E00D9
:10251000A842E7DC1548B0F87000401E00EB8000D0
:10252000144931F810001149A1F872000846B0F8BA
:102530007000401E00EB80000E4901EB4000408817
:102540000A49A1F874000846B0F87000401E00EB7C
:102550008000084901EB400080880449A1F876001A
:1025600070BD000099440F0086B30020EC9D002050
:102570008E460F006EB7002010B50446064AA1181B
:10258000621E064B03EB4200012209F063FA601E53
:10259000024931F8100010BD99440F0086B30020A5
:1025A00070B50546284600F025F80F49C884002478
:1025B00012E06A1E4FF4FA635A4302F259221423BE
:1025C00003FB042104EB8402084B03EBC20014223A
:1025D00009F040FA601C84B2681E054931F8100009
:1025E000A042E6DC70BD0000EC9D0020BEA30020F0
:1025F000D69F002010B5044604F16401621E0B4B07
:1026000003EB4200012209F025FA601E074931F868
:102610001000642804DD0021601E044A22F8101016
:10262000601E024931F8100010BD0000D69F002046
:1026300010B50020064908700120487000208870FD
:102640000120C87004210248FEF7B8FA10BD00004E
:10265000EA01002000BFFEE7302805DB392803DC53
:10266000A0F13001C8B210E0412805DB462803DCA8
:10267000A0F13701C8B208E0612805DB662803DC59
:10268000A0F15701C8B200E0FF20704710B50D4817
:10269000B0F88400022805D1FFF78CFE0A480088B4
:1026A0000849C8860749C88EFFF7A4FF0549C884B2
:1026B00000204880C88EFFF773FF04484089014915
:1026C000888710BDEC9D00206EB70020BEA30020BF
:1026D0004CF6CC40014908607047000000300040D3
:1026E00010B500F013F810BD70B505460C4645F264
:1026F000555000F01FF8284600F010F8204600F072
:1027000013F800F003F8FFF7E3FF70BD4AF6AA20C4
:1027100001490860704700000030004001494860EE
:102720007047000000300040014988607047000099
:102730000030004001490860704700000030004050
:1027400070B53C48B0F86E10B0F86C00401E3A4AC4
:1027500022F81010374AB2F86C20384BD118354A9D
:10276000B2F86C20521E344B03EB4200012209F0F8
:10277000FBF93048B0F86E4017E0002511E0A01ECC
:1027800000EB80002E4901EB400030F81510601E70
:1027900000EB80002A4A02EB400020F81510681C6C
:1027A00085B2052DEBDB601E84B22248B0F87000C4
:1027B000A042E2DD1F48B0F87210B0F87000401E71
:1027C00000EB80001E4A22F810101A48B0F874106E
:1027D000B0F87000401E00EB800002EB400041802A
:1027E0001448B0F87610B0F87000401E00EB80007E
:1027F00002EB40008180002415E00E4AB2F86C2004
:10280000521E104B4FF4FA7606FB0232052303FBEF
:10281000042104EB84020A4B03EB4200052209F079
:10282000A3F9601C84B20348B0F86E00A042E4DC57
:1028300070BD0000EC9D002086B3002099440F007D
:102840006EB700208E460F001CB50121202005F038
:10285000CFF90121022005F0CBF90121402005F03C
:10286000C7F90121084605F0C3F90121042005F04C
:10287000BFF90121082005F0BBF90121102005F066
:10288000B7F92020009000208DF8040003208DF877
:10289000050001208DF8070069467D48FFF710FD0F
:1028A00048F21040009000208DF8040003208DF8BD
:1028B000050001208DF8070069467648FFF700FD06
:1028C00044F2F070009000208DF8040003208DF891
:1028D000050001208DF8070069466F48FFF7F0FCFE
:1028E00048F20810009001208DF8040000208DF8B7
:1028F000060003208DF8050001208DF807006946C9
:102900006348FFF7DDFC002064490860012064494A
:10291000C1F8A00261493031086040F2F9700090BE
:1029200001208DF8040000208DF8060003208DF8AA
:10293000050001208DF8070069465A48FFF7C0FCE2
:1029400001205949086058490C310860091D086088
:10295000091D0860091D0860091D0860091D08603F
:10296000091D08605149C1F8A802302000900120DB
:102970008DF8040000208DF8060003208DF8050076
:1029800001208DF8070069464948FFF799FC0120AE
:10299000484908604849C1F894024FF21B00009072
:1029A00001208DF8040000208DF8060003208DF82A
:1029B000050001208DF8070069464048FFF780FCBC
:1029C00001203F490860091D08603D490C3108603D
:1029D000091D08603A4930310860091D0860091D69
:1029E00008603849C1F8BC020320009001208DF82E
:1029F000040000208DF8060003208DF8050001205A
:102A00008DF8070069462348FFF75AFC01202E493C
:102A100008602E49C1F884020F20009001208DF833
:102A2000040000208DF8060003208DF80500012029
:102A30008DF8070069461848FFF742FC0120244939
:102A40000860091D0860091D08602249C1F88C0250
:102A50004FF46C40009001208DF8040000208DF8A8
:102A6000060003208DF8050001208DF80700694657
:102A70001948FFF725FC0120184908601749143947
:102A80000860091D08601649C1F8B4021CBD0000A9
:102A90000000024000100240001402408C0240423C
:102AA00000004042000402408082404200804042D8
:102AB000000802409002414200004142000C0240E6
:102AC00080824142008041428002424200004242F4
:102AD000808242420080424200180240BC024342CF
:102AE0000000434210B57E2014490870322048701F
:102AF000352088703020C870087134204871362025
:102B000088713420C8713220087245204872302004
:102B10008872C8723220087330204873312088735D
:102B20004620C873442008743320487431208874C8
:102B30000D20C874142008F07BFC10BD867C00209A
:102B40002DED048B00BFF3E1FA480078002879D11D
:102B5000F948B0F86410012000F0D2FAF648B0F855
:102B60006410022000F0CCFAF348B0F8641003209F
:102B700000F0C6FAF048B0F86410042000F0C0FA83
:102B8000EC48007A60BBEC49B1F864000BF01AFB2A
:102B900041EC190B9FEDE90B53EC102B0BF026FBCE
:102BA00041EC180B0BF0CAFA04462146022000F053
:102BB000A7FAE149B1F864000BF004FB41EC190BF2
:102BC0009FEDDE0B53EC102B0BF010FB41EC180BC0
:102BD0000BF0B4FA04462146042000F091FA76E1A5
:102BE000D448407A0028FAD1D349B1F864000BF0F8
:102BF000E9FA41EC190B9FEDD10B53EC102B0BF0C4
:102C0000F5FA41EC180B0BF099FA04462146012025
:102C100000F076FAC849B1F864000BF0D3FA41EC41
:102C2000190B9FEDC60B53EC102B0BF0DFFA41ECA8
:102C3000180B0BF083FA04462146032000F060FADB
:102C400045E1FFE7BB484078002879D1BA48B0F8A1
:102C50006410012000F000FAB748B0F864100220B8
:102C600000F0FAF9B448B0F86410032000F0F4F969
:102C7000B148B0F86410042000F0EEF9AD48007AD5
:102C800060BBAD49B1F864000BF09CFA41EC190B44
:102C90009FEDAA0B53EC102B0BF0A8FA41EC180B8C
:102CA0000BF04CFA04462146022000F029FAA24912
:102CB000B1F864000BF086FA41EC190B9FED9F0B05
:102CC00053EC102B0BF092FA41EC180B0BF036FA88
:102CD00004462146042000F013FAF8E09548407AB3
:102CE0000028ADD19449B1F864000BF06BFA41ECC7
:102CF000190B9FED920B53EC102B0BF077FA41EC74
:102D0000180B0BF01BFA04462146012000F0F8F9DD
:102D10008949B1F864000BF055FA41EC190B9FEDAD
:102D2000870B53EC102B0BF061FA41EC180B0BF0F6
:102D300005FA04462146032000F0E2F9C7E0FFE768
:102D40007C488078C0B97C48B0F86410012000F05D
:102D500083F97948B0F86410022000F0D1F9764880
:102D6000B0F86410032000F0CBF97348B0F8641099
:102D7000042000F071F9AAE06E48C078C0B96E482E
:102D8000B0F86410012000F0BBF96B48B0F8641093
:102D9000022000F061F96848B0F86410032000F0E8
:102DA0005BF96548B0F86410042000F0A9F98EE0E2
:102DB0006048007990B9012000F0FAF85E48B0F858
:102DC0006410022000F09CF95B48B0F86410032006
:102DD00000F096F9042000F0EBF878E055484079CF
:102DE00090B95548B0F86410012000F035F9022080
:102DF00000F0DEF8032000F0DBF84F48B0F8641074
:102E0000042000F029F962E04A48807990B94A48E4
:102E1000B0F86410012000F073F9022000F0C8F847
:102E2000032000F0C5F84448B0F86410042000F016
:102E300067F94CE03F48C07990B9012000F0B8F83C
:102E40003D48B0F86410022000F006F93A48B0F8A6
:102E50006410032000F000F9042000F0A9F836E027
:102E60003448007AC0B93448B0F86410012000F04A
:102E7000F3F83148B0F86410022000F041F92E4810
:102E8000B0F86410032000F0E7F82B48B0F86410A5
:102E9000042000F035F91AE02648407AB8B92648EF
:102EA000B0F86410012000F02BF92348B0F864104A
:102EB000022000F0D1F82048B0F86410032000F0A0
:102EC0001FF91D48B0F86410042000F0C5F8194837
:102ED0000078012826D117484078012822D11548CA
:102EE000807801281ED11348C07801281AD11148D2
:102EF0000079012816D10F484079012812D10D48D8
:102F0000807901280ED10B48C07901280AD10948DF
:102F1000007A012806D10748407A012802D105200D
:102F200000F046F80A230022114610460AF032F952
:102F30000AE6000044000020EC9D00200000000094
:102F40000000F83F00BFFEE730B505460C462246BC
:102F50000021284600F001F830BD2DE9F04105467A
:102F60000B4694460027002402E03F021F43641CE6
:102F7000042CFAD3604605F00306294646B13446D0
:102F800003E001F8013B401E641C08B1042CF8D397
:102F90000A4601E080C2001F0428FBD2114602E06D
:102FA00001F8013B401E0028FAD1BDE8F081000085
:102FB00010B50446012C07D10020234908600021E8
:102FC000224807F0C8FA3EE0022C08D100201E4932
:102FD000091F086000211D4807F0BFFA33E0032CE9
:102FE00008D1002018490C3908600021174807F063
:102FF000B6FA28E0042C08D10020134910390860E3
:103000000021124807F0ADFA1DE0002010490870B9
:103010000D4908600F49C1F88C020B490C39086052
:103020000C49C1F880020021084807F094FA0021F9
:10303000064807F092FA0021044807F090FA0021B0
:10304000024807F08EFA10BD90824142000800400D
:10305000E60100200080414270B505460C46012083
:1030600022490870012D06D0022D11D0032D1DD04C
:10307000042D37D128E001201D490860C1031D48F7
:10308000FFF789F9C4F57A711B4807F064FA2AE062
:1030900001201749091F086041031648FFF77DF911
:1030A000C4F57A71144807F058FA1CE00120104961
:1030B0000C39086010211148FFF76DF9C4F57A71D9
:1030C0000D4807F04CFA0EE001200949103908605C
:1030D00081020848FFF761F9C4F57A71064807F0E4
:1030E00040FA00E000BF00BF70BD0000E601002014
:1030F0009082414200180240000800400004024053
:1031000070B505460C46012022490870012D06D0F5
:10311000022D11D0032D1DD0042D37D128E0012020
:103120001D490860C1031D48FFF737F9C4F57A71DE
:103130001B4807F010FA2AE001201749091F086010
:1031400041031648FFF727F9C4F57A71144807F0D0
:1031500004FA1CE0012010490C39086010211148C4
:10316000FFF71BF9C4F57A710D4807F0F8F90EE086
:10317000012009491039086081020848FFF70BF95E
:10318000C4F57A71064807F0ECF900E000BF00BF13
:1031900070BD0000E601002090824142001802400C
:1031A00000080040000402407047000070B5002194
:1031B00000230F22C4781CB3174C246804F4E06485
:1031C000C4F5E064C4F30721C1F10404E3B20A4189
:1031D00044789C40E1B28478144021430C07210ECE
:1031E0000E4C05786155047804F01F050124AC40AD
:1031F00005786D11AD0005F1E025C5F8004109E045
:10320000047804F01F050124AC40054D06787611C2
:1032100045F8264070BD00000CED00E000E400E041
:1032200080E100E002490143024A1160704700005A
:103230000000FA050CED00E015481648164817483E
:10324000174818481848194819481A481A481B4876
:103250001B481C481C481D481D481E481E481F4846
:103260001F48204820482148214822482248234816
:1032700023482448244825482548264826482748E6
:103280002748284828482948294800BF7047000097
:103290009CE40008FCE3000800E4000804E40008E3
:1032A00008E400080CE4000810E4000814E4000836
:1032B00018E400081CE4000820E4000824E40008E6
:1032C00028E400082CE4000830E4000834E4000896
:1032D00038E400083CE4000840E4000844E4000846
:1032E00048E400084CE4000850E4000854E40008F6
:1032F00058E400085CE4000860E4000864E40008A6
:1033000068E400086CE4000870E4000874E4000855
:1033100078E400087CE4000880E4000884E4000805
:1033200088E400088CE4000890E4000894E40008B5
:1033300098E4000810B50348006810B1014800681F
:10334000804710BD8402002070B5044600F0C2F82A
:1033500000204849087048490870484908704849A1
:103360000860484908604849087048490870484959
:103370000870484908604849086048490860484959
:103380000870484800680A21B0FBF1F0464908601F
:103390004648006858B14648056845B14348066844
:1033A00003E0761E002028602D1D002EF9D100209C
:1033B0004049086040490860404908604049086049
:1033C0004049086040490860404908604049087029
:1033D00002F0ECF902F0CCFA204601F07BFB2088E9
:1033E00000B170BD204601F05DFF208800B1F8E714
:1033F000204601F07FFF208800B1F2E7204602F06E
:103400004BF8208800B1ECE7204602F0FFF9208855
:1034100000B1E6E7204602F01FFC208800B1E0E79B
:10342000204602F041FF208800B1DAE7204601F093
:10343000A5FE208800B1D4E7204601F0BDFC20881D
:1034400000B1CEE7204603F09FFE208800B1C8E718
:10345000204602F06DFE208800B1C2E7204603F04E
:10346000EFFE208800B1BCE701F05CFAFFF7E4FE54
:1034700000BFB6E79802002099020020E002002079
:10348000380300203C030020C6020020C7020020B1
:10349000C8020020D4020020D8020020DC02002054
:1034A000E80200205CE40008E40200202CE40008AC
:1034B00028E40008780200207C020020800200201E
:1034C00084020020880200208C020020900200204C
:1034D00016030020064800680649096800EB8100D1
:1034E000054908600846006820F00700086070473A
:1034F00028E400082CE40008400300200848007875
:10350000012800D0704707480078FA2800DBF9E767
:1035100004480078401C0349087000BFF2E700002F
:10352000990200209802002010B500242D48007850
:10353000012800D010BD00BFFCF7BAFE044600BF52
:103540002948007828B900BF2046FCF7B5FE00BF27
:10355000F0E725480078401E2349087008460078A7
:10356000002805DD00BF2046FCF7A6FE00BFE1E70E
:103570001E480078002805DD00BF2046FCF79CFEB1
:1035800000BFD7E702F0FEF8194908700846007836
:1035900000EB4000174951F8200017490860084621
:1035A000006816490968884205D100BF2046FCF72B
:1035B00083FE00BFBEE710480068D0F89000401CB2
:1035C0000D490968C1F890000D480068401C0C497D
:1035D0000860FCF7BFFF00BF2046FCF76DFE00BF90
:1035E00000BFA7E79902002098020020E002002017
:1035F000C702002074D500203C03002038030020BF
:103600000C03002010B500241F480078002800DDBE
:1036100010BD1E480078002800DDF9E700BFFCF768
:1036200047FE044600BF02F0ADF81949087008468D
:10363000007800EB4000174951F820001649086057
:103640000846006815490968884205D100BF204630
:10365000FCF732FE00BFDBE70F480068D0F89000AF
:10366000401C0D490968C1F890000D480068401CD5
:103670000B490860FCF769FF00BF2046FCF71CFE01
:1036800000BF00BFC4E7000098020020E002002055
:10369000C702002074D500203C030020380300201E
:1036A0000C03002070B50446002518480078002857
:1036B00003DD46F66250208070BD15480078012871
:1036C00003D045F689602080F6E712480078FA2892
:1036D00003DB45F209202080EEE700BF00BFFCF7C6
:1036E000E7FD054600BF00BF0A480078401C0949B5
:1036F000087002F01DFA00BF00BF2846FCF7DCFD91
:1037000000BF00BF0020208000BFD5E79802002046
:1037100099020020E00200202DE9F04105460C4608
:103720001646002700BF00BFFCF7C2FD074600BFDA
:1037300000BF012D03D000200D49087002E00120D8
:103740000B49087014B10B48046006E00A48006891
:103750000A21B0FBF1F00749086000BF00BF3846FE
:10376000FCF7AAFD00BF00BF00203080BDE8F0815B
:10377000E8020020E40200205CE4000870B5044682
:10378000002520480078002803DD46F6655020809B
:1037900070BD1D480078012803D045F6896020805F
:1037A000F6E71A48007818B946F664502080EFE72B
:1037B00000BF00BFFCF77CFD054600BF00BF1348FB
:1037C0000078401E114908700846007800280ADD7C
:1037D00000BF00BF2846FCF76FFD00BF00BF46F6E4
:1037E00063502080D4E702F0B1F900BF00BF284643
:1037F000FCF762FD00BF00BFFFF704FF0020208040
:1038000000BFC5E79802002099020020E0020020D6
:1038100010B5044612480078E8B901F0B3FF114929
:10382000087008460078104908700E48007800EBD0
:1038300040000E4951F820000D4908600846006814
:103840000C490860012006490870FCF76DFE43F63C
:103850009920208002E045F68A60208010BD00009B
:1038600099020020C7020020C602002074D5002063
:103870003C030020380300202DE9F04107464FF0BB
:10388000000800BF00BFFCF713FD804600BF00BF6B
:1038900000203D4908603D4908803D4908803D4978
:1038A00008603D4908603D4908603D4908603D4960
:1038B000088100BF00BF4046FCF7FEFC00BF00BF10
:1038C00000BF00BFFCF7F4FC804600BF00BF3648D5
:1038D000046800BF00BF4046FCF7EEFC00BF00BF1D
:1038E00021E000BF00BFFCF7E3FC804600BF00BF43
:1038F00000207834E06320602063A061A082E08231
:103900006062A062FDF704FD2062783C04F1640669
:103910000020B081D4F8BC4000BF00BF4046FCF797
:10392000CBFC00BF00BF002CDBD100BF00BFFCF709
:10393000BFFC804600BF00BF1C48056800BF00BF39
:103940004046FCF7B9FC00BF00BF12E000BF00BF5B
:10395000FCF7AEFC804600BF00BF05F1200600204A
:10396000B081AD6900BF00BF4046FCF7A5FC00BFB9
:1039700000BF002DEAD103F0E3FA03F05DFD002063
:103980003880BDE8F0810000AC020020A6020020D3
:10399000F6020020080300201C030020280300205A
:1039A000D802002068D5002010030020CC0200209F
:1039B000F8B5044600266946324800F08FFDBDF890
:1039C000000018B1BDF800002080F8BD6A46002153
:1039D000022000F0F7FDBDF8000018B1BDF80000AE
:1039E0002080F2E700BF00BFFCF762FC064600BF84
:1039F00000BF00202449086000BF00BF3046FCF72C
:103A00005BFC00BF00BF0025204800682049096812
:103A1000884205D91D4800681D490968B0FBF1F5C9
:103A200025B91A4800680A21B0FBF1F56A46002161
:103A3000284600F0C7FD6946124800F063FABDF859
:103A4000000018B1BDF800002080BEE700BF00BF35
:103A5000FCF72EFC064600BF00BF00200D490860A1
:103A6000094800680C49086001200C49087000BF33
:103A700000BF3046FCF720FC00BF00BF00202080C4
:103A800000BFA2E7FCD90020F80200205CE4000897
:103A900044E4000808030020FC0200200403002086
:103AA00010B50348006810B101480068804710BD98
:103AB000880200202DE9FF4F87B004469046DDE9DB
:103AC0001BA5DDE91496179F002003908748007816
:103AD000002805DD47F24A1028800BB0BDE8F08FC2
:103AE0001CB947F2AD102880F7E7B8F1000F03D1F9
:103AF00047F24F102880F0E71EB946F62F60288065
:103B0000EBE77B480068874203D246F630602880A6
:103B1000E3E71698B84203D346F631602880DCE725
:103B2000B9F1400F03D346F273202880D5E7B9F1ED
:103B3000000F06D16F48844203D046F273202880DC
:103B4000CBE7B9F13F0F06D16B48844203D046F270
:103B500073202880C1E7204602F0B6FB00202880B1
:103B60000AF0010090B10AF0020078B10596002039
:103B7000069008E00021059801600598001D059059
:103B80000698401C06900698B842F3D3169806EBA8
:103B900080000490CDE9007A32464046049B0A99A1
:103BA00000F06EFB0590C4F828800A98E06208983F
:103BB000206284F83790059820600498A0601998D6
:103BC0006065199818B94D480068A06501E019981A
:103BD000A0651A9860606662A763A4F83CA04FF0E5
:103BE000000B08E0002104F17C0040F82B100BF1E1
:103BF000010000F0FF0BBBF1000FF3D004F16400F3
:103C0000189901F0C3FB204600F082F800BF00BF06
:103C100000BFFCF74DFB039000BF00BF38480078A1
:103C2000401C3749087000BF00BF0398FCF744FBF5
:103C300000BF00BF00BF94F8370001F0C3FD20466D
:103C400001F0DEFE204602F0F5FA2E480088401C06
:103C50002C4908802C48007801282DD000BF00BFD7
:103C600000BFFCF725FB039000BF00BF244800788D
:103C7000401E2349087008460078A0B923480088F0
:103C8000002809DD00BF00BF0398FCF715FB00BF4B
:103C900000BF01F023FF0DE000BF00BF0398FCF759
:103CA0000BFB00BF06E000BF00BF0398FCF704FB5E
:103CB00000BF00BF00BF10E700BF00BF00BFFCF7A0
:103CC000F7FA039000BF00BF0D480078401E0C4972
:103CD000087000BF00BF0398FCF7EEFA00BF00BFFA
:103CE00000BFFFF78FFC00BFF7E60000980200203E
:103CF00058E40008A4D40020E0D30020E40200200F
:103D0000E00200201403002099020020A4020020F9
:103D100010B504460348006818B1204601490968F7
:103D2000884710BD7802002070B504460D46002675
:103D300067480078002803DD47F24E10288070BDE8
:103D40006448844203D147F24C102880F7E7624868
:103D5000844203D147F24D102880F0E77CB900BFC0
:103D600000BFFCF7A5FA064600BF00BF5B48046829
:103D700000BF00BF3046FCF79FFA00BF00BF00BF86
:103D800000BF00BFFCF794FA064600BF00BF5448CE
:103D90000078401C5249087000BF00BF3046FCF755
:103DA0008BFA00BF00BF00BF94F8360008282DD260
:103DB000DFE800F004090E10080A0F11204601F098
:103DC0005FFE54E053E000BF204603F09DF84EE054
:103DD00000BF00BF00BF204603F096F894F83400FF
:103DE000082810D2DFE800F004070508090A0B06CE
:103DF00000BF00BF08E000BF00BF00BF00BF2046FB
:103E000001F011FC00E000BF00BF30E000BF00BFC8
:103E100000BFFCF74DFA064600BF00BF30480078EF
:103E2000401E2F49087008460078A0B92D48008828
:103E3000002809DD00BF00BF3046FCF73DFA00BF97
:103E400000BF01F04BFE0DE000BF00BF3046FCF7A5
:103E500033FA00BF06E000BF00BF3046FCF72CFA83
:103E600000BF00BF00BF46F62D60288067E700BF97
:103E700004F1640001F068FA204600F037F82046AB
:103E800002F0F0F918480088401E174908802046C3
:103E900002F01AFAFF2084F8360000BF00BF00BF0E
:103EA000FCF706FA064600BF00BF0D480078401E2A
:103EB0000B49087000BF00BF3046FCF7FDF900BF9A
:103EC00000BF00BF00202880FFF79CFB00BF36E743
:103ED00098020020E0D30020A4D400203803002062
:103EE000E0020020A40200201403002010B50446C4
:103EF0000348006818B1204601490968884710BD89
:103F00007C0200207FB504460D46002600BF00BF9E
:103F1000FCF7CEF9064600BF00BF1CB1154800688B
:103F200084420AD100BF00BF3046FCF7C5F900BF8C
:103F300000BF47F2571028807FBD00BF00BF30464A
:103F4000FCF7BAF900BF00BF0B48007800280BDD72
:103F5000002000900190034602462146CDE902056B
:103F6000064800F061FFE7E72946204602F024FBFF
:103F700000BFE1E738030020980200205452455367
:103F800010B504460348006818B120460149096885
:103F9000884710BD800200202DE9F04780460E467C
:103FA00014461D464FF000097D480078002805DDC5
:103FB00046F2AE1028800020BDE8F0871EB1B6F5AD
:103FC000004F02D100E000BF04E045F625602880E4
:103FD0000020F1E700BF0CB10020206000BF00BF4F
:103FE000FCF766F9814600BF00BF6E480068406C70
:103FF000A8B36C480068406C401E6A490968486470
:1040000068480068476C1CB166480068006C206016
:10401000FDF77EF963490968096C401A614909682E
:10402000C1F8A4005F480068D0F8A8005D4909689D
:10403000D1F8A410884207D25A480068D0F8A400EA
:1040400058490968C1F8A80000BF00BF4846FCF7FE
:1040500033F900BF00BF002028803846ACE7FFE7F7
:1040600006F4004058B100BF00BF4846FCF724F9F1
:1040700000BF00BF46F2B010288000209CE74A48ED
:10408000007800280BDD00BF00BF4846FCF714F99C
:1040900000BF00BF46F66350288000208CE700BFB9
:1040A00041480078401C4049087000BF00BF4846A6
:1040B000FCF702F900BF00BF00BF43460722002102
:1040C000084601F0F5F900BF00BF00BFFCF7F0F8AB
:1040D000814600BF00BF34480078401E3249087056
:1040E00000BF00BF4846FCF7E7F800BF00BF00BFB5
:1040F000FFF788FA00BF00BFFCF7DAF8814600BF7F
:1041000000BF2848006890F8350020B1012826D06B
:10411000032834D12CE0FCB122480068006C2060F8
:10412000FDF7F6F81F490968096C401A1D4909682E
:10413000C1F8A4001B480068D0F8A8001949096814
:10414000D1F8A410884207D216480068D0F8A4001D
:1041500014490968C1F8A8000020288013E01CB1A8
:1041600010480068006C206046F2A91028800AE020
:104170000CB10020206047F2D920288003E046F6E9
:104180002E60288000BF00BF06480068476C00BF53
:1041900000BF4846FCF790F800BF00BF38460BE769
:1041A0009802002038030020E00200202DE9F047AB
:1041B00005460E4617461C464FF0000A2E4800786A
:1041C000002804DD47F259102080BDE8F0871EB9B1
:1041D00046F2D5202080F8E71FB946F2D52020808E
:1041E000F3E700BF00BFFCF763F8824600BF00BFE3
:1041F0000DB922480568286868B900BF00BF50465D
:10420000FCF75AF800BF00BF00203060386047F26A
:1042100052102080D9E795F83C0000F0010068B901
:1042200000BF00BF5046FCF747F800BF00BF0020AA
:104230003060386047F254102080C6E700BF00BFEE
:104240005046FCF739F800BF00BF4FF00008D5F822
:10425000249003E009F1040908F10108D9F80000ED
:104260000028F7D0C6F80080A86BA0EB08003860E3
:104270000020208000BFA8E798020020380300201B
:10428000F0B50446DDE9055602EB850020F0070095
:104290004FF0000C071F3846C7F800C04FF4805C91
:1042A000071F3846C7F800C04FF0150C071F3846E7
:1042B000C7F800C04FF0140C071F3846C7F800C0FD
:1042C0004FF0130C071F3846C7F800C04FF0120C10
:1042D000071F3846C7F800C04FF0110C071F3846BB
:1042E000C7F800C04FF0100C071F3846C7F800C0D1
:1042F0004FF0090C071F3846C7F800C04FF0080CF4
:10430000071F3846C7F800C04FF0070C071F384694
:10431000C7F800C04FF0060C071F3846C7F800C0AA
:104320004FF0050C071F3846C7F800C04FF0040CCB
:10433000071F3846C7F800C04FF0030C071F384668
:10434000C7F800C04FF0020C071F3846C7F800C07E
:104350004FF0010C071F3846C7F800C04FF0000CA3
:10436000071F3846C7F800C04FF0807C071F38464B
:10437000C7F800C0071F38463C60DFF85CC1071F64
:104380003846C7F800C04FF0123C071F3846C7F840
:1043900000C04FF0033C071F3846C7F800C04FF07D
:1043A000023C071F3846C7F800C0071F38463B606D
:1043B000071F384639604FF0310C071F3846C7F8E1
:1043C00000C04FF0300C071F3846C7F800C04FF050
:1043D000290C071F3846C7F800C04FF0280C071FEC
:1043E0003846C7F800C04FF0270C071F3846C7F8FB
:1043F00000C04FF0260C071F3846C7F800C04FF02A
:10440000250C071F3846C7F800C04FF0240C071FC3
:104410003846C7F800C04FF0230C071F3846C7F8CE
:1044200000C04FF0220C071F3846C7F800C04FF0FD
:10443000210C071F3846C7F800C04FF0200C071F9B
:104440003846C7F800C04FF0190C071F3846C7F8A8
:1044500000C04FF0180C071F3846C7F800C04FF0D7
:10446000170C071F3846C7F800C04FF0160C071F7F
:104470003846C7F800C04FF0113C071F3846C7F850
:1044800000C04FF0103C071F3846C7F800C04FF07F
:10449000093C071F3846C7F800C04FF0083C071F0B
:1044A0003846C7F800C04FF0073C071F3846C7F82A
:1044B00000C04FF0063C071F3846C7F800C04FF059
:1044C000053C071F3846C7F800C04FF0043C071FE3
:1044D0003846C7F800C0F0BDF96600087FB505464C
:1044E0000C461248854203D147F25B1020807FBD05
:1044F0000F48854203D147F25C102080F7E70D4852
:10450000007800280BDD0020009001900346024651
:104510002946CDE90204084800F086FCE7E7214679
:10452000284602F057FB00BFE1E70000E0D300207F
:10453000A4D40020980200205453555310B51D48B0
:10454000006810B11B4800688047FCF7E1FE044694
:104550001948006819490968884215D0164800684A
:10456000D0F89800201A14490968C1F8940012483C
:104570000068D0F89C0010490968D1F894100844EC
:104580000D490968C1F89C000C480068C0F89840C3
:1045900009480068D0F8B40009490968884205D282
:1045A0000748006804490968C1F8B40000200449BC
:1045B000086010BD8C020020380300203C0300205E
:1045C000DC0200202DE9F04105460E461446002786
:1045D0003F480078002804DD47F275202080BDE8C0
:1045E000F0813C480078002803DD46F663502080C7
:1045F000F5E736B1022E05D0042E0AD0082E09D1D7
:1046000001E000BF00BF1DB947F27E202080E6E731
:1046100004E003E045F625602080E0E700BF00BF2E
:1046200000BF00BFFBF744FE074600BF00BF29489C
:104630000078401C2749087000BF00BF3846FBF7D0
:104640003BFE00BF00BF00BF01202349096881F87D
:1046500036002346324629461F48006802F076FBA2
:104660002088A8B100BF00BF00BFFBF721FE0746AE
:1046700000BF00BF17480078401E1649087000BFF1
:1046800000BF3846FBF718FE00BF00BF00BFA6E71B
:104690001148006801F0F4F900BF00BF00BFFBF74C
:1046A00007FE074600BF00BF0A480078401E0949C0
:1046B000087000BF00BF3846FBF7FEFD00BF00BF1B
:1046C00000BFFEF79FFF0020208000BF87E70000AB
:1046D00098020020E0020020380300202DE9FF5F4F
:1046E00005460E4617469846DDE90EA400200090C8
:1046F00072480078002804DD47F275202080BDE86C
:10470000FF9F6F480078002803DD46F66350208045
:10471000F5E70AF00E0BBBF1000F09D0BBF1020F59
:1047200007D0BBF1040F10D0BBF1080F0ED101E090
:1047300000BF00BFB8F1000F06D12FB926B91DB9CF
:1047400047F27E202080DAE704E003E045F62560AA
:104750002080D4E700BF2AF01E0008B1012000E04D
:10476000002003900398012803D145F6256020809E
:10477000C5E7CAF3001002900298C0B9B8F57A7F75
:1047800003D347F27B202080B9E73B2F03DD47F2BC
:104790007A202080B3E73B2E03DD47F2792020808A
:1047A000ADE7632D12DD47F278202080A7E742F2C3
:1047B0000F70864203DD47F2792020809FE7B5F530
:1047C0007A7F03DB47F27820208098E73D48D0F8D5
:1047D00000904FF4FA70B0FBF9F0404400FB09F090
:1047E0004FF47A71B0FBF1F14FF461606843C6EBAE
:1047F000061200EB8200384400FB0910019001987A
:10480000002856D000BF00BF00BFFBF751FD00904D
:1048100000BF00BF2A480078401C2949087000BF2B
:1048200000BF0098FBF748FD00BF00BF00BF01209C
:104830002549096881F8360023465A4622480199DD
:10484000006802F083FA2088A8B100BF00BF00BF53
:10485000FBF72EFD009000BF00BF19480078401EF6
:104860001749087000BF00BF0098FBF725FD00BF87
:1048700000BF00BF43E71448006801F001F900BF22
:1048800000BF00BFFBF714FD009000BF00BF0C4845
:104890000078401E0A49087000BF00BF0098FBF76F
:1048A0000BFD00BF00BF00BFFEF7ACFE0020208064
:1048B00002E047F27E20208000BF20E7980200201F
:1048C000E00200205CE400083803002010B586B048
:1048D00000F01EF8FCF71CFD044605A8002100911D
:1048E000CDE9011403900748007800EB4000064A28
:1048F00002EB800100231A46044800F095FA06B046
:1049000010BD0000C602002074D500205449434B5E
:1049100010B50348006810B101480068804710BD19
:104920009002002024482548254826482648274844
:10493000274828482848294829482A482A482B48EF
:104940002B482C482C482D482D482E482E482F48BF
:104950002F4830483048314831483248324833488F
:10496000334834483448354835483648364837485F
:10497000374838483848394839483A483A483B482F
:104980003B483C483C483D483D483E483E483F48FF
:104990003F484048404841484148424842484348CF
:1049A000434844484448454845484648464847489F
:1049B000474800BF70470000A0E4000808E6000870
:1049C000A2E40008A3E40008A4E40008A8E40008A6
:1049D000ACE40008A9E40008D4E40008D5E4000829
:1049E000D6E40008D8E40008DAE40008DCE40008B3
:1049F000DEE40008E0E4000800E5000802E5000845
:104A000004E5000806E5000808E500080AE50008D6
:104A10000CE5000838E5000839E500083AE500082B
:104A20003CE500083EE500083FE5000840E50008D9
:104A300042E5000844E5000846E5000848E50008AE
:104A40004AE500084CE500087CE500087DE5000823
:104A50007EE500087FE5000880E5000882E50008A3
:104A600084E50008ACE50008ADE50008AEE5000807
:104A7000AFE50008B0E50008B2E50008B4E50008BD
:104A8000B8E50008B9E50008BAE50008BBE500088C
:104A9000BCE50008BDE50008BEE50008BFE500086C
:104AA000C0E50008C2E50008C3E50008C4E5000849
:104AB000C6E50008C8E50008C9E50008CCE500081F
:104AC00000E6000801E6000802E6000804E6000827
:104AD00006E600080021034A1160034A11800180A4
:104AE00070470000B0020020B40200202DE9F04F12
:104AF00085B00446894692469B46DDF83880002002
:104B0000009000BF00BFFBF7D3FB009000BF00BFC9
:104B1000BAF1000F0AD0BAF1010F0DD0BAF5004F6B
:104B200005D06FF40040504460B906E000BF206A31
:104B300040EA0900206214E000BF206A20EA090070
:104B400020620EE000BF00BF0098FBF7B5FB00BF7E
:104B500000BF45F62560A8F80000002005B0BDE8BC
:104B6000F08F00BFC4F824B004F108000190019850
:104B7000008958B900BF00BF0098FBF79DFB00BF3C
:104B800000BF0020A8F80000206AE7E700BF6148E6
:104B90000078401C5F49087000BF00BF0098FBF719
:104BA0008BFB00BF00BF00BF01980768BD687FE0B6
:104BB0007868029095F8880000F00F000390039841
:104BC000012821D002282ED0042802D0082836D16E
:104BD0000EE0206AD5F8801000EA0106D5F88000C2
:104BE000B04204D15A463146284600F097F859E0C1
:104BF000206AD5F8801000EA010626B15A463146EF
:104C0000284600F08BF84DE0D5F88000216A20EAB4
:104C10000106D5F88000B04204D15A4631462846F4
:104C200000F07CF83EE0D5F88000216A20EA010619
:104C300026B15A463146284600F070F832E000BFEF
:104C400000BF00BFFBF734FB009000BF00BF31483E
:104C50000078401E2F49087008460078A0B92E48F9
:104C60000088002809DD00BF00BF0098FBF724FB87
:104C700000BF00BF00F032FF0DE000BF00BF009892
:104C8000FBF71AFB00BF06E000BF00BF0098FBF770
:104C900013FB00BF00BF00BF43F6FF20A8F80000D1
:104CA00000205BE700BF029F0FB1BD6800E0002558
:104CB000002D7FF47DAF00BF00BF00BFFBF7F8FA07
:104CC000009000BF00BF13480078401E11490870D3
:104CD00000BF00BF0098FBF7EFFA00BF00BF00BFA6
:104CE0000AF4004008B9FEF78DFC00BF00BFFBF7D7
:104CF000DFFA009000BF00BF206A049000BF00BF31
:104D00000098FBF7D9FA00BF00BF0020A8F8000008
:104D1000049823E7E0020020A402002070B50446B6
:104D20000E46154634342665002060702070E5601C
:104D3000A078343C082816D2DFE800F00405080902
:104D40000706101100BF00BF00BF0DE000BF2046E6
:104D500001F024FC002084F8360005E000BF0420A8
:104D600084F8360000E000BF00BF204600F05BFC86
:104D700070BD0000002400BF19E000BF00BFFBF7BA
:104D800097FA044600BF00BF09480068401C084964
:104D9000086008480068401C0649086000BF00BF62
:104DA0002046FBF789FA00BF00BFFEF7C3FAE4E72D
:104DB00094020020F802002010B58AB004460020BA
:104DC0000E4908600B2000210591CDE907040691EA
:104DD00008460B4909680B4A12680B4B1B68CDE962
:104DE0000132CDE903103F200023084A08A10090BA
:104DF0000C48FEF75FFE0AB010BD000094020020D0
:104E000004E4000800E40008FCE30008754D000815
:104E100075432F4F532D4949492049646C652054EF
:104E200061736B00E0D300202DE9F84F04460D4676
:104E300016461F46DDE90BABDDF82890DDF834801F
:104E40000020009000BF00BFFBF732FA009000BFC7
:104E500000BF2B4800882B49098888423EDA284841
:104E60000088401C26490880274800880988884215
:104E700003DA234800882449088024480068046035
:104E800022480068856021480068C6601F480068A5
:104E900007821E480068C0F814901C480068A0F8FB
:104EA00018A01A480068C0F81CB01848006840688C
:104EB00016490860012016490881164808604860B4
:104EC000002000F07FFC1448007818B112480078E8
:104ED000124908700020A8F8000008E01048008877
:104EE000401C0F49088044F25360A8F8000000BF3E
:104EF00000BF0098FBF7E0F900BF00BFBDE8F88FE6
:104F0000A402002010E40008A60200209C02002059
:104F100074D50020A4D40020C6020020C8020020BE
:104F2000A80200203EB5594800680068584A811A16
:104F3000904279D00FDC5749084400283ED05649AA
:104F40000844A8B155490844002860D05449084491
:104F500000286AD13FE053480844002850D0524905
:104F60000844002862D0514908440028F1D110E0DB
:104F700002A8464D00902D68EB69444D2D682A8BA0
:104F8000424D2D686969414D2D68A868FFF7AEFD57
:104F90007AE002A93D480068C0693C4DCDE90001B6
:104FA0002D682B8B394D2D682A8A384D2D68E9687C
:104FB000364D2D68A86800F035FC65E0334B1B6862
:104FC000DA69324B1B68198B304B1B68986802AB4F
:104FD00000F04EFE58E002A92C480068C0692B4D35
:104FE000CDE900012D682B8B284D2D682A8A274D8D
:104FF0002D68E968254D2D68A86801F0C9F943E0DE
:1050000022490968886802A901F0D6FA3CE01F4BE2
:105010001B68DA691D4B1B68198B1C4B1B68986851
:1050200002AB01F075FB2FE007E02CE0174909689F
:10503000886802A901F0CEFD26E01D49097801EB40
:1050400041011C4A02EB810000F09EFD0F48006800
:1050500002AB0021C269184801F05AFB17480068EA
:10506000401E164908600846006858B91448006890
:105070000860FCF74DF9044602AB224600211148B6
:1050800001F046FB00E000BF00BF3EBDA0020020D3
:105090005449434BADBAB2BE0DF90BFAF2F8F7FF23
:1050A0000006F6FF00F7FDF700FFEFFF03FE0FFE1F
:1050B000C802002074D5002038D900203403002015
:1050C00030030020FCD90020002700BF4CE0002660
:1050D00048E000BF00BFFBF7EBF8074600BF00BF8A
:1050E0002248008888B9002021490881086048606A
:1050F00000F07AFB00BF00BF3846FBF7DDF800BFC9
:1051000000BFFEF77FFA01262CE000BF00BF384643
:10511000FBF7D2F800BF00BFFCF7FAF80546FFF72F
:1051200001FFFCF7F5F8441B12480068A04201D2C9
:105130001048046000BF00BFFBF7BAF8074600BF85
:1051400000BF0D48006840680B49086007480088A8
:10515000401E0649088000BF00BF3846FBF7ACF888
:1051600000BF00BF002EB4D0B1E70000A4020020B1
:1051700074D50020AC020020A0020020F0B589B058
:1051800005460020314908803148006820B944F2C2
:105190005260288009B0F0BD2E480088022803DA4A
:1051A00044F254602880F5E700202B490860284825
:1051B00004682646203600270CE02848206000209E
:1051C000A060E06020826061208366602034203629
:1051D000781C87B21F4800888742EEDB203C1C48C1
:1051E000066866601E4806601E48066000201E496C
:1051F00008801E4908801E48006818B944F25560AE
:105200002880C7E71B4800681B490968884203D209
:1052100044F256602880BDE7032000210591CDE9C6
:105220000705069113480068144A1268104B1B6862
:10523000CDE90301CDE9013200910B46104A11A1DD
:105240001748FEF737FC00BFA4E70000A8020020C3
:105250000CE4000810E40008AC0200204E4F4E455C
:105260009C020020A0020020A4020020A602002030
:1052700018E4000820E4000858E400081CE40008D2
:10528000C950000875432F4F532D494949204953B0
:1052900052205175657565205461736B00000000E4
:1052A000A4D400200021034A1160034A1180018028
:1052B00070470000B8020020BC02002070B5024612
:1052C0000B461046114610315E1EB5B2002408E0B0
:1052D0000160002646600681C66010301031661CF1
:1052E000B4B2AC42F4DB0026066046600681C660BC
:1052F00070BD000010B504461048006818B945F2AA
:105300001E70208010BD0E48008818B945F21D702F
:105310002080F7E70A48018808480068FFF7CEFFB9
:105320000648006807490860054800888880002012
:10533000C8800881208000BFE4E700003CE400084A
:1053400034E4000868D5002010B5014648894B892F
:10535000002B17DD0A680C4B1B6813600A4C4B6866
:1053600023602346DB884C891B1B074CE3802346C4
:105370009B884C892344044CA38000234B818B8160
:105380000B604B6010BD000068D500200181002239
:105390004281828102604260704700002DE9F04145
:1053A0000D46DDE90674B0F80AC0B0F80880C445BF
:1053B00005DB46F2935CA4F800C0BDE8F081DFF89D
:1053C000D4C0BCF804C0BCF1000F04D145F21D7C70
:1053D000A4F800C0F1E7DFF8BCC0DCF80010DFF88B
:1053E000B480D1F800C0C8F800C0C446BCF804C0FE
:1053F000ACF1010CA8F804C0C446BCF806C00CF11E
:10540000010CA8F806C0C446BCF808C0B8F806806D
:10541000C44507DADFF87CC0BCF806C0DFF874804A
:10542000A8F808C0B0F80AC0BCF1000F06D10160AE
:1054300041604FF0010CA0F80AC017E003F0100C17
:10544000BCF1000F07D1066831604FF0000CC1F8C5
:1054500000C0016004E0D0F804C0C1F800C04160A1
:10546000B0F80AC00CF1010CA0F80AC0B0F80CC0EA
:10547000B0F80A80C44503DAB0F80AC0A0F80CC03E
:105480004D600A81CF604FF0000CA4F800C000BF4F
:1054900093E7000068D500200021034A1160034A09
:1054A0001180018070470000C0020020C40200206B
:1054B0002DE9F04105460C4616461F461548006882
:1054C00080F8346000201349096881F835003946B6
:1054D0001048006800F092FE6CB104F10808EC601E
:1054E000012229460B48006800F016F8294640467C
:1054F00000F066F806E0002006490968C8870549FB
:105500000968086303480168204600F019F8BDE8FF
:10551000F08100003803002010B5C287016300232A
:105520000AE000244C600C600C614C610C83CC617F
:10553000886020315C1CA3B29342F2DB10BD0000F6
:1055400030B548B14568C1F8C05000F10804226880
:1055500093681D6AC56113E091F83450022D02D0A2
:10556000072D08D103E007A5C1F8C05007E007A543
:10557000C1F8C05003E008A5C1F8C05000BF00BF8B
:1055800030BD00005461736B205100005461736B97
:105590002053656D000000002000000030B507A515
:1055A000C1F8C05000F1080422681AB193681D6A5E
:1055B000C56101E001A5C56130BD0000200000000B
:1055C000F0B58E6896F8375007893FB901270781F3
:1055D00000274F600F600160416023E007897F1C56
:1055E0000781026806E0946894F83770AF4200DDE6
:1055F00002E05268002AF6D100BF32B900274F609E
:1056000043680B60596041600CE017682FB9116066
:1056100000270F604A60016004E013680B604A6075
:1056200059601160F0BD2DE9F0410446256BE68F0D
:105630000AE0D5F80C8008F108072946384600F042
:105640000AF82035701E86B2002EF2DC0020E087BA
:105650002063BDE8F08110B50489012C03D100243A
:105660000460446011E00C6824B94A6800241460A6
:1056700002600AE04C6824B90B6800245C60436057
:1056800003E00B684A685A6013600489641E048151
:1056900000244C600C6010BD2DE9F84306460C4612
:1056A00017469846089D94F83600082850D2DFE83F
:1056B00000F00405080906072B2C00BF00BF00BF3F
:1056C00047E000BF94F83400032807D143463A4628
:1056D00021463046009500F03FF803E0E765A4F866
:1056E0006080256436B12046FFF79DFF2146304695
:1056F000FFF754FF204600F051FF00203434A07023
:10570000607004F8340924E000BF94F834000328E2
:1057100007D143463A4621463046009500F01CF832
:1057200003E0E765A4F860802564204601F0ECFB07
:1057300036B12046FFF777FF21463046FFF72EFFB0
:1057400004203434A0700020607004F8340900E0B4
:1057500000BF00BFBDE8F883F0B50446059E086BA6
:10576000CD8F0AE0C768A74204D104614261038378
:10577000C66104E020306F1EBDB2002DF2DC00BF18
:10578000F0BD000070B50025074C03E005F12000D6
:10579000C5B2241D20680028F8D02068FAF793FDD0
:1057A0002844C5B2284670BD70020020002004E0E5
:1057B0000021034A42F82010401C0228F8D3704709
:1057C0007002002030B5420900F01F030121C3F12F
:1057D0001F04A140034C54F822400C43014D45F8EE
:1057E000224030BD7002002030B5420900F01F0396
:1057F0000121C3F11F04A140034C54F822408C4303
:10580000014D45F8224030BD700200200021034ABE
:105810001160034A1180018070470000CC02002013
:10582000D00200202DE9F04F85B007468A46934606
:105830001C460020029000BF00BF00BFFAF738FDF1
:10584000029000BF00BF48480078401C46490870DD
:1058500000BF00BF0298FAF72FFD00BF00BF00BFD6
:1058600007F108063089002842D104F0100010B971
:105870004FF0000801E04FF01008DDE90E0143464B
:105880005A46CDE90001514607F12000FFF786FD99
:1058900000BF00BF00BFFAF70BFD029000BF00BFC2
:1058A00031480078401E3049087008460078A0B999
:1058B0002E480088002809DD00BF00BF0298FAF7D3
:1058C000FBFC00BF00BF00F009F90DE000BF00BF06
:1058D0000298FAF7F1FC00BF06E000BF00BF029893
:1058E000FAF7EAFC00BF00BF00BF05B0BDE8F08FCB
:1058F00004F4007008B1358900E00125D6F8009065
:1059000011E0D9F808000390D9F8040004900E982B
:105910005B465246009038460399FFF7BDFEDDF81E
:105920001090681E85B2002DEBD100BF00BF00BFF4
:10593000FAF7BEFC029000BF00BF0B480078401E83
:105940000949087000BF00BF0298FAF7B5FC00BF14
:1059500000BF00BF04F4004008B9FDF753FE00216A
:105960000F98018000BFC0E7E0020020A4020020E1
:1059700000210AE001EB4102054B03EB820000220B
:105980000281026042604A1CD1B24029F2D37047C2
:1059900074D5002010B5044694F83700FFF712FFC5
:1059A00094F8370005490978884203D1204600F071
:1059B00027F802E0204600F003F810BDC6020020E0
:1059C00010B590F8373003EB43030C4C04EB830124
:1059D0000B893BB901230B810023C360036108607D
:1059E000486009E00B895B1C0B810B68C3600023D6
:1059F00003610A681061086010BD000074D50020C2
:105A000010B590F8373003EB43030B4C04EB8301E4
:105A10000B893BB901230B810023C360036108603C
:105A2000486008E00B895B1C0B810023C3604A6857
:105A30000261D060486010BD74D5002010B50146E9
:105A40000C8924B1012C03D0022C0CD101E000BF41
:105A500014E008684A6802610024C4601461D060E0
:105A60000A6048600AE008684A68C36800241C614C
:105A7000C4600261D0600B60486000BF00BF10BD11
:105A80002DE9F041054695F8370000EB400012493A
:105A900001EB80042F69EE6887B946B900202081A8
:105AA0002060606095F83700FFF79EFE0EE02089C9
:105AB000401E208100203061266007E02089401EC2
:105AC0002081FE600EB9676000E037610020286128
:105AD000E860BDE8F081000074D5002010B5002416
